S0120000566172696F54696E79432E737265632A
S11300000EC028C027C026C0C8C4DFC423C022C075
S113001021C020C01FC01EC01DC01CC01BC0112495
S11300201FBECFE5D1E0DEBFCDBF10E0A0E6B0E05B
S1130030E2EFFFE002C005900D92A236B107D9F7B6
S113004020E0A2E6B0E001C01D92A838B207E1F7B3
S11300506FD5CDC7D5CFF894B89A2AE0809508F427
S1130060C09808F0C09A362F3A95F1F786952A95EC
S1130070B1F71895F894B99A2AE0809508F4C198D4
S113008008F0C19A362F3A95F1F786952A95B1F77B
S11300901895F894BA9A2AE0809508F4C29808F062
S11300A0C29A362F3A95F1F786952A95B1F71895A5
S11300B0F894BB9A2AE06BE8809508F4C39A08F098
S11300C0C398362F3A95F1F786952A95B1F7189586
S11300D0F894BC9A2AE0809508F4C49808F0C49A6D
S11300E0362F3A95F1F786952A95B1F71895F89435
S11300F0BD9A2AE0809508F4C59808F0C59A362F71
S11301003A95F1F786952A95B1F7189500C000C085
S113011000C000C000C000C000000895B898BA989C
S1130120C098C2980895B89AF1DF1DD00895BA9A7C
S1130130EDDFB898EBDFBA98E9DFB89AE7DF13D0C0
S11301400895082EB89AE2DF802D0DD0882311F08F
S113015002D0F8CF0895BA9AB89AD8DFBA98D6DF01
S1130160B898D4DF08950894881F01C0880F59F007
S1130170BA9A18F40000B89802C0B89A00C0C6DF52
S1130180BA98C4DFF3CFBA9AB898C0DFBA98B29BD2
S1130190FECF8827B09981E0B9DF99270895882791
S11301A001C081E071E0BA9AB898B0DFBA98AEDFC6
S11301B0B29BFECF8894B0990894771FA0F7BA9A9F
S11301C0813011F0B89801C0B89AA0DFBA98B29BF8
S11301D0FECF9CDF872F99270895CF93DF93D82FE5
S11301E0C62F8CEEAEDF8D2FBEDF8C2FBCDFB3DFCE
S11301F0DF91CF910895CF92DF92EF92FF920F9308
S11302001F93CF93DF93C82FF62ED72FE42E8CEEB7
S113021098DF8C2FA8DF8DEE8ADFEE20F9F00F2D0A
S11302201D2FCC24CA94CE0CD12C8FEFC81AD80A17
S1130230C0E0D0E0F12CE1E0EE1AF108EC16FD0686
S113024021F4ADDFF801808303C0ABDFF8018083C4
S113025021960F5F1F4FCC15DD0581F77CDFDF9101
S1130260CF911F910F91FF90EF90DF90CF90089561
S1130270CF93DF931F92CDB7DEB750DF8DE08A9521
S1130280F1F70000198241E0BE016F5F7F4F80EDFE
S1130290B2DF8981883599F48AE1E2E6F0E0DF0192
S11302A01D928A95E9F74AE1BF0188E8A4DF60E17D
S11302B085EF93DF67E584EF90DF81E001C080E0A4
S11302C00F90DF91CF9108952F923F924F925F92BA
S11302D06F927F928F929F92AF92BF92CF92DF9252
S11302E0EF92FF920F931F93CF93DF93CDB7DEB7B7
S11302F027970FB6F894DEBF0FBECDBF46E0BE0110
S11303006F5F7F4F87EF77DFC980CF827A806B8002
S11303108C8190E0A0E0B0E0AC01BD01032E3CE094
S1130320440F551F661F771F3A95D1F7302D9D81D5
S1130330892F90E0A0E0B0E0880F991FAA1FBB1F8F
S1130340880F991FAA1FBB1F880F991FAA1FBB1FC5
S1130350880F991FAA1FBB1F842B952BA62BB72B85
S11303602E8122952F70822B02E610E0F801408145
S1130370518160E070E04C015D01689413F8B5941C
S1130380A794979487941694D1F7841A950AA60A89
S1130390B70A689412F8B595A7959795879516941A
S11303A0D1F7440F551F661F771F6C017D01C41AD6
S11303B0D50AE60AF70AC701B60122813381032E62
S11303C0000C440B550B8FD51B012C01012E1BE097
S11303D055944794379427941A95D1F7102DA50175
S11303E09401C501B4017FD5052E5CE095958795F0
S11303F0779567955A95D1F7502DF8012481358169
S1130400032E000C440B550B6ED56B017C010B2E97
S1130410BEE0F594E794D794C794BA95D1F7B02D7C
S1130420C20CD31CE41CF51CD701C601880F991F0C
S1130430AA1FBB1F880F991FAA1FBB1F8C0D9D1DD0
S1130440AE1DBF1D80589F4FAF4FBF4F892F9A2FAE
S1130450AB2FBB27A7FDBA9580937E0090937F00B6
S1130460A0938000B0938100F594E794D794C79447
S1130470FAEFDF1AE108F108C701B60195958795EF
S11304807795679595958795779567959B01AC01C9
S11304902AD54B015C01F80162857385072E000C97
S11304A0880B990BA5019401012E1DE055954795E4
S11304B0379527951A95D1F7102D15D51B012C01C9
S11304C0689412F855944794379427941694D1F766
S11304D0F80160857185072E000C880B990BA70124
S11304E0960101D5DC01CB01B595A7959795879524
S11304F0820D931DA41DB51D072E72E1B595A79518
S1130500979587957A95D1F7702DBC01CD017058D8
S11305108F4F9F4FF8012681378140E050E0E3D4AC
S11305201B012C01012E1FE0559447943794279406
S11305301A95D1F7102D211431044104510449F4C2
S11305401092820010928300109284001092850011
S113055063C1C501B401052E5BE095958795779538
S113056067955A95D1F7502D02E610E0F8012089DD
S11305703189032E000C440B550BB5D44B015C019F
S1130580F80166857785072E000C880B990BA70167
S11305909601A9D4DC01CB01880F991FAA1FBB1FA8
S11305A0880D991DAA1DBB1DAC01BD0175956795EC
S11305B0579547957595679557954795872D90E07D
S11305C0A0E0B0E0880F991FAA1FBB1F880F991FD6
S11305D0AA1FBB1F880F991FAA1FBB1F880F991F33
S11305E0AA1FBB1F66946694669466948629CF807E
S11305F08C2C912CA12CB12C072E7CE0880C991CFE
S1130600AA1CBB1C7A95D1F7702D882A992AAA2A8C
S1130610BB2AF80184859585092E000CAA0BBB0B17
S1130620DC0199278827840F951FA61FB71F072E63
S11306307CE0B595A795979587957A95D1F7702D18
S1130640880E991EAA1EBB1EB094A0949094809408
S1130650811C911CA11CB11CD501C401880F991FD8
S1130660AA1FBB1F880F991FAA1FBB1F880E991EA4
S1130670AA1EBB1ED501C401880F991FAA1FBB1F48
S1130680880F991FAA1FBB1F880E991EAA1EBB1E86
S1130690D501C401880F991FAA1FBB1F880F991F7A
S11306A0AA1FBB1F880E991EAA1EBB1ED501C4011A
S11306B0880F991FAA1FBB1F880F991FAA1FBB1F52
S11306C0880E991EAA1EBB1ED501C401880F991F4E
S11306D0AA1FBB1F880F991FAA1FBB1F880D991D36
S11306E0AA1DBB1DBC01CD01805B9C43992384F0F2
S11306F0660F771F881F991FA201910120D42093B0
S1130700820030938300409384005093850011C08D
S1130710A201910114D4DA01C901880F991FAA1FFB
S1130720BB1F8093820090938300A0938400B093B6
S11307308500C0908200D0908300E0908400F09007
S11307408500C701B601689412F896958795779548
S113075067951694D1F79B01AC01C5D3052E5DE0D6
S113076096958795779567955A95D1F7502D02E61A
S113077010E0F80126893789032E000C440B550B31
S1130780B2D34B015C01072E7CE0B594A7949794F7
S113079087947A95D1F7702DC701B6019695879500
S11307A0779567959695879577956795F801248948
S11307B03589032E000C440B550B95D3DC01CB017A
S11307C0072E7DE0B595A795979587957A95D1F7EE
S11307D0702D880D991DAA1DBB1DF80142895389EE
S11307E0052E000C660B770B840F951FA61FB71FF1
S11307F0689413F8B595A795979587951694D1F7AE
S11308008C0D9D1DAE1DBF1D8093820090938300AF
S1130810A0938400B093850027960FB6F894DEBFAA
S11308200FBECDBFDF91CF911F910F91FF90EF903D
S1130830DF90CF90BF90AF909F908F907F906F90FC
S11308405F904F903F902F9008950F931F93809146
S1130850820090918300A0918400B0918500863E2F
S113086004E7900701E0A007B10598F04DEC5BE8C0
S113087061E070E08A019B01081B190B2A0B3B0BFA
S1130880C901B8010FD225EF3FE94EEA5DE39CD2DE
S113089074C085311FE5910711E0A107B105C0F0CF
S11308A045EE54E761E070E08A019B01081B190BD7
S11308B02A0B3B0BC901B801F5D127E239E547EB17
S11308C05DE382D220E030E04AEF53E456D155C0D4
S11308D087371AE4910711E0A107B105C0F044E19C
S11308E05FE561E070E08A019B01081B190B2A0B8C
S11308F03B0BC901B801D6D12CE433E042EC5DE3F3
S113090063D220E030E04AE754E437D136C08B3874
S113091016E3910711E0A107B105C0F046E75AE4D8
S113092061E070E08A019B01081B190B2A0B3B0B49
S1130930C901B801B7D129EC38EC48EC5DE344D2E5
S113094020E030E84BEB54E418D117C04AE856E3F2
S113095061E070E08A019B01081B190B2A0B3B0B19
S1130960C901B8019FD124E23DEC44ED5DE32CD2F2
S113097020E030E04AEF54E400D120E030E048ECDD
S113098052E422D21F910F910895E0918600F091D4
S1130990870060917D00099508951F920F920FB60C
S11309A00F9211248F9380917C008F5F80937C0041
S11309B08EEF8FBD8F910F900FBE0F901F901895E3
S11309C098B382E0892788BB08951F920F920FB6CF
S11309D00F9211242F933F934F935F936F937F93C1
S11309E08F939F93AF93BF93EF93FF938091600096
S11309F0815080936000811104C087E0809360007F
S1130A00016001FDDDDFFF91EF91BF91AF919F91F7
S1130A108F917F916F915F914F913F912F910F90A3
S1130A200FBE0F901F901895EF92FF921F93CF93D4
S1130A30DF93E82EEB011D2F8EE590E0A6DF8E2DCF
S1130A4090E0A3DF8EE5C81307C08DE590E09DDF3D
S1130A508EE390E09ADF0DC08DE5C81307C08DE5E5
S1130A6090E093DF8DE390E090DF03C0CE019927FF
S1130A708CDF1E3539F48DE590E087DF8EE390E05E
S1130A8084DF0CC01D3539F48DE590E07EDF8DE305
S1130A9090E07BDF03C08D2F90E077DFDF91CF9173
S1130AA01F91FF90EF900895CF92DF92EF92FF9203
S1130AB0CF93DF9309DCC9DE94D264E670E02CD2D4
S1130AC0EC01C3DE20E030E0A9017AD1181674F4F9
S1130AD0BCDE6B017C01BE0180E090E0E3D09B01B1
S1130AE0AC01C701B60148D0ACD00AC0AEDE79D2A1
S1130AF08C0F9D1F66277727681B790B80E090E099
S1130B0024E630E040E050E03CD2B90180E190E0DE
S1130B108BDFBE0181E290E087DF8EE590E035DF78
S1130B204FDFDF91CF91FF90EF90DF90CF9008954A
S1130B3080E886BD81E086BD8AE087BB18BA00E004
S1130B4085E083BF12BE87E080BF8EEF8FBD86E055
S1130B5089BF87E880937D0088E590E090938700C3
S1130B608093860085DB811101C00260789400FFC8
S1130B70FECF0E7F99DFFBCF5058BB27AA270ED09C
S1130B80E5C0D6D030F0DBD020F031F49F3F11F433
S1130B901EF4CBC00EF4E095E7FBC1C0E92FE7D00B
S1130BA080F3BA17620773078407950718F071F486
S1130BB09EF5FFC00EF4E0950B2EBA2FA02D0B016D
S1130BC0B90190010C01CA01A0011124FF27591B8E
S1130BD099F0593F50F4503E68F11A16F040A22F94
S1130BE0232F342F4427585FF3CF46953795279505
S1130BF0A795F0405395C9F77EF41F16BA0B620B04
S1130C00730B840BBAF09150A1F0FF0FBB1F661F4A
S1130C10771F881FC2F70EC0BA0F621F731F841F8D
S1130C2048F4879577956795B795F7959E3F08F0B3
S1130C30B3CF9395880F08F09927EE0F9795879572
S1130C40089504D06894B111B5C0089598D088F07F
S1130C509F5790F0B92F9927B751A0F0D1F0660FA4
S1130C60771F881F991F1AF0BA95C9F712C0B130BF
S1130C7081F09FD0B1E008959CC0672F782F88271A
S1130C80B85F39F0B93FCCF3869577956795B395FE
S1130C90D9F73EF490958095709561957F4F8F4F6D
S1130CA09F4F0895E89409C097FB3EF49095809572
S1130CB0709561957F4F8F4F9F4F9923A9F0F92F1E
S1130CC096E9BB279395F695879577956795B7959C
S1130CD0F111F8CFFAF4BB0F11F460FF1BC06F5F82
S1130CE07F4F8F4F9F4F16C0882311F096E911C094
S1130CF0772321F09EE8872F762F05C0662371F0B5
S1130D0096E8862F70E060E02AF09A95660F771FC8
S1130D10881FDAF7880F9695879597F9089597F9BC
S1130D209F6780E870E060E008959FEF80EC08958D
S1130D3000240A94161617061806090608950024B6
S1130D400A9412161306140605060895092E039430
S1130D50000C11F4882352F0BB0F40F4BF2B11F4A4
S1130D6060FF04C06F5F7F4F8F4F9F4F089557FD03
S1130D709058440F551F59F05F3F71F04795880F05
S1130D8097FB991F61F09F3F79F08795089512169C
S1130D9013061406551FF2CF4695F1DF08C0161648
S1130DA017061806991FF1CF8695710561050894F9
S1130DB00895E894BB2766277727CB0197F9089510
S1130DC06ED008F48FEF08950AD0C0CFB1DF28F0B9
S1130DD0B6DF18F0952309F0A2CFA7CFEBCFC7DF7A
S1130DE0A8F39923D9F35523C9F3950F50E0551F60
S1130DF0AA27EE27FF27BB2700240894679520F431
S1130E00E20FF31FB41F0A1E220F331F441FAA1F31
S1130E106695A9F7779530F4F30FB41F0A1E121ED6
S1130E2008F46395330F441FAA1F221F769599F780
S1130E30879520F4B40F0A1E121E631F440FAA1FC5
S1130E40221F331F8695A9F7862F712D602D11243B
S1130E509F5750408AF0E1F088234AF0EE0FFF1FBD
S1130E60BB1F661F771F881F91505040A9F79E3FF4
S1130E70510570F054CF9ECF5F3FECF3983EDCF306
S1130E80869577956795B795F795E7959F5FC1F731
S1130E90FE2B880F911D9695879597F90895990FC4
S1130EA00008550FAA0BE0E8FEEF16161706E80730
S1130EB0F907C0F012161306E407F50798F0621B51
S1130EC0730B840B950B39F40A2661F0232B242B26
S1130ED0252B21F408950A2609F4A140A6958FEF45
S1130EE0811D811D0895EE27FF27AA27BB2708C06F
S1130EF0A20FB31FE41FF51F220F331F441F551FFA
S1130F00969587957795679598F37040A9F700971C
S1130F1099F7BD01CF01089597FB072E16F40094AD
S1130F2006D077FD08D049D007FC05D03EF4909553
S1130F3081959F4F0895709561957F4F0895A1E223
S1130F401A2EAA1BBB1BFD010DC0AA1FBB1FEE1F3F
S1130F50FF1FA217B307E407F50720F0A21BB30B8A
S1130F60E40BF50B661F771F881F991F1A9469F706
S1130F7060957095809590959B01AC01BD01CF0162
S1130F800895052E97FB16F400940FD057FD05D055
S1130F90D6DF07FC02D046F408C050954095309542
S1130FA021953F4F4F4F5F4F0895909580957095D1
S1130FB061957F4F8F4F9F4F0895AA1BBB1B51E133
S1130FC007C0AA1FBB1FA617B70710F0A61BB70BB5
S1130FD0881F991F5A95A9F780959095BC01CD015A
S1130FE0089597FF03C09195819591090895F89408
S1050FF0FFCF2D
S1050FF20E00EB
S9030000FC
